:020000040800F2
:1000000028040020B5010008410A0008150700086F
:10001000150800088F020008651A0008000000009B
:10002000000000000000000000000000590D000862
:100030001503000800000000C90A0008210E00088E
:10004000E3010008E3010008E3010008E301000800
:10005000E3010008E3010008E3010008E3010008F0
:10006000E3010008E3010008E3010008E3010008E0
:10007000E3010008E3010008E3010008E3010008D0
:10008000E3010008E3010008E3010008E3010008C0
:10009000E3010008E3010008E3010008E3010008B0
:1000A000E3010008E3010008E3010008E3010008A0
:1000B000E3010008E3010008E3010008E301000890
:1000C000E3010008E3010008E3010008E301000880
:1000D000E3010008E3010008E3010008E301000870
:1000E000E3010008E3010008E3010008E301000860
:1000F000E3010008E3010008E3010008E301000850
:10010000E3010008E3010008E3010008E30100083F
:10011000E3010008E301000819120008E3010008E8
:10012000E3010008E3010008E3010008E30100081F
:10013000E3010008000000000000000000000000D3
:1001400000000000000000000000000000000000AF
:10015000000000000000000000000000E3010008B3
:10016000E3010008E3010008E3010008E3010008DF
:10017000E3010008E3010008E3010008E3010008CF
:10018000E3010008E3010008E3010008E3010008BF
:10019000E3010008E3010008E3010008E3010008AF
:1001A000DFF80CD000F026F800480047C51B000817
:1001B000280400200B494FF44070A1F8B0010A4810
:1001C000C16811F0010FFBD108488047084800477B
:1001D000FEE7FEE7FEE7FEE7FEE7FEE7FEE7FEE7F7
:1001E000FEE7FEE700F0FF1F00200240250E00089A
:1001F000A1010008064C074D06E0E06840F001034D
:1002000094E8070098471034AC42F6D3FFF7CCFFD0
:100210006C1C00088C1C000810B500F023F800F0DE
:1002200001F810BD0EB50121102000F04FFC40F286
:10023000E730ADF804004720ADF8000069460848F3
:1002400001F0BEFA0121064801F006F8012211462C
:10025000034801F023F90121014801F003F80EBD24
:100260000010004008B54FF4E06000F023FC362099
:100270008DF8000000208DF8010003208DF80200A9
:1002800001208DF80300684600F0DCFB08BD00BFCC
:10029000FEE7000010B510211B4800F00CFA2021E9
:1002A000194800F006FA4FF48061174800F003FA8D
:1002B0004FF40061144800F0FCF94FF480511348EA
:1002C00000F0F7F90421114800F0F5F94FF400515E
:1002D0000E4800F0F0F920210C4800F0EAF94FF444
:1002E00016710B4801F034FA4FF41671084801F00A
:1002F00031FA4FF41671064801F02EFA4FF41671D8
:10030000034801F02BFA10BD00080140000C014029
:100310000004004000BFFEE710B500F007F800F051
:100320004BF800F09FF800F0E3F810BD00B587B07F
:100330000121042000F0EAFB0121084600F0C6FB81
:100340000320ADF8180004208DF81B0003208DF861
:100350001A0006A9174800F021F90020ADF80C009A
:100360004FF6FF70ADF810000020ADF81200ADF8A8
:100370000E0003A94FF0804001F022FA0A231A462A
:100380000321580701F018F8684601F07EF80620AE
:10039000ADF8080069464FF0804001F03FF80021B9
:1003A0004FF0804001F0DDF90121880700F05AFF8D
:1003B00007B000BD0008014000B587B00121102042
:1003C00000F0A4FB0121480300F0A0FBC020ADF821
:1003D000180003208DF81A0004208DF81B0006A9D0
:1003E0001D4800F0DBF81D4800F058FF03A801F09D
:1003F00039FA4FF6FF70ADF810000020ADF80C0090
:10040000ADF81200ADF80E008DF81400012114486B
:1004100000F016FF03A9124801F0D2F90A231A4688
:1004200003210F4800F0C8FF684601F02EF80620AF
:10043000ADF8080069460A4800F0F0FF01210848BD
:1004400000F00AFF0021064801F08BF90121044861
:1004500000F008FF07B000BD00100140002C014073
:100460000034014000B587B00121082000F04EFBA8
:100470000121042000F02AFBC020ADF81800042060
:100480008DF81B0003208DF81A0006A9164800F00D
:1004900085F80020ADF80C004FF6FF70ADF81000A5
:1004A0000020ADF81200ADF80E0003A90F4801F0CE
:1004B00087F90A231A4603210C4800F07DFF68469D
:1004C00000F0E3FF0620ADF808006946074800F099
:1004D000A5FF0021054801F044F90121034800F07F
:1004E000C1FE07B000BD0000000C01400008004044
:1004F00000B587B00121042000F008FB0121C802EB
:1005000000F004FB4FF44070ADF8180003208DF8A4
:100510001A0004208DF81B0006A91E4800F03EF8C2
:100520001D4800F0BBFE03A801F09CF94FF6FF70D8
:10053000ADF810000020ADF80C00ADF81200ADF8D9
:100540000E008DF814000121134800F079FE03A974
:10055000114801F035F90A231A4603210E4800F02C
:100560002BFF684600F091FF0620ADF808006946B1
:10057000094800F053FF0121074800F06DFE0021FB
:10058000054801F0EEF80121034800F06BFE07B0CA
:1005900000BD000000080140002C01402DE9F041A1
:1005A000024600250026002000230024002791F8A1
:1005B00003C00CF00F0591F803C00CF0100CBCF157
:1005C000000F03D091F802C04CEA050591F800C075
:1005D000BCF1000F31D0146800202BE04FF0010C6B
:1005E0000CFA00F3B1F800C00CEA03069E4220D1D9
:1005F00083004FF00F0C0CFA03F7BC4305FA03FC21
:100600004CEA040491F803C0BCF1280F06D14FF066
:10061000010C0CFA00FCC2F814C00AE091F803C007
:10062000BCF1480F05D14FF0010C0CFA00FCC2F8E8
:1006300010C0401C0828D1D31460B1F800C0BCF130
:10064000FF0F34DD546800202EE000F1080C4FF05D
:10065000010808FA0CF3B1F800C00CEA03069E4248
:1006600021D183004FF00F0C0CFA03F7BC4305FABD
:1006700003FC4CEA040491F803C0BCF1280F05D137
:1006800000F1080C08FA0CF8C2F8148091F803C0C5
:10069000BCF1480F07D100F1080C4FF0010808FA2F
:1006A0000CF8C2F81080401C0828CED35460BDE876
:1006B000F0814161704701617047000008B500207A
:1006C00000900121042000F021FA4FF44360ADF8BE
:1006D000000010208DF8030003208DF80200694609
:1006E0000A48FFF75BFF0121082000F00FFA43F2F0
:1006F0002400ADF8000010208DF8030003208DF8D1
:10070000020069460248FFF749FF08BD00080140A2
:10071000000C014000BFFEE710B510211B48FFF799
:10072000C8FF20211948FFF7C6FF4FF48061174822
:10073000FFF7C1FF4FF400611448FFF7BAFF4FF411
:1007400080511348FFF7B7FF04211148FFF7B1FFAD
:100750004FF400510E48FFF7ACFF20210C48FFF783
:10076000AAFF4FF416710B4800F0F2FF4FF4167118
:10077000084800F0EFFF4FF41671064800F0ECFF58
:100780004FF41671034800F0E9FF10BD0008014066
:10079000000C01400004004010B510211A48FFF77A
:1007A0008AFF20211848FFF784FF4FF48061164824
:1007B000FFF781FF4FF400611348FFF77AFF4FF412
:1007C00080511248FFF777FF04211048FFF771FFAF
:1007D0004FF400510D48FFF76EFF20210B48FFF743
:1007E00068FF00210A4800F0B3FF4FF41671084873
:1007F00000F0B0FF4FF41671054800F0ADFF002186
:10080000034800F0ABFF10BD00080140000C0140A0
:100810000004004000BFFEE710B510211B48FFF7A1
:1008200048FF20211948FFF746FF4FF48061174821
:10083000FFF73FFF4FF400611448FFF73CFF4FF410
:1008400080511348FFF735FF04211148FFF733FFAC
:100850004FF400510E48FFF72CFF20210C48FFF702
:100860002AFF4FF416710B4800F072FF4FF4167117
:10087000084800F06FFF4FF41671064800F06CFF57
:100880004FF41671034800F069FF10BD00080140E5
:10089000000C01400004004010B510211B48FFF778
:1008A0000AFF20211948FFF704FF4FF48061174821
:1008B000FFF701FF4FF400611448FFF7FAFE4FF411
:1008C00080511348FFF7F7FE04211148FFF7F1FEAE
:1008D0004FF400510E48FFF7EEFE20210C48FFF7C1
:1008E000E8FE4FF416710B4800F032FF4FF416711A
:1008F000084800F02FFF4FF41671064800F02CFF57
:100900004FF41671034800F029FF10BD00080140A4
:10091000000C01400004004010B510211B48FFF7F7
:10092000CAFE20211948FFF7C4FE4FF48061174822
:10093000FFF7C1FE4FF400611448FFF7BAFE4FF411
:1009400080511348FFF7B7FE04211148FFF7B1FEAD
:100950004FF400510E48FFF7AEFE20210C48FFF780
:10096000A8FE4FF416710B4800F0F2FE4FF46171CF
:10097000084800F0EFFE4FF41671064800F0ECFE58
:100980004FF46171034800F0E9FE10BD000801401A
:10099000000C01400004004010B510211B48FFF777
:1009A0008AFE20211948FFF784FE4FF48061174822
:1009B000FFF781FE4FF400611448FFF77AFE4FF411
:1009C00080511348FFF777FE04211148FFF771FEAD
:1009D0004FF400510E48FFF76EFE20210C48FFF740
:1009E00068FE4FF461710B4800F0B2FE4FF4617184
:1009F000084800F0AFFE4FF46171064800F0ACFE0D
:100A00004FF41671034800F0A9FE10BD0008014024
:100A1000000C01400004004010B50021074800F020
:100A200097FE0021054800F095FE0021034800F0E4
:100A300093FE0021014800F091FE10BD000400402B
:100A400000BFFEE770B5002100230F22C47804B375
:100A5000154C246804F4E064C4F5E064210AC1F193
:100A60000403CA40447804FA03F184781440214313
:100A700009010E4C0678A155047804F01F050124E5
:100A8000AC4005786D11AD0005F1E025C5F80041D9
:100A900009E0047804F01F050124AC40044D0678F9
:100AA000761145F8264070BD0CED00E000E400E052
:100AB00080E100E002490143024A116070470000F2
:100AC0000000FA050CED00E000BFFEE729B1064A80
:100AD000D2690243044BDA6104E0034AD2698243DB
:100AE000014BDA61704700000010024029B1064A4C
:100AF00012690243044B1A6104E0034A12698243FB
:100B0000014B1A61704700000010024029B1064AEB
:100B100092690243044B9A6104E0034A926982435A
:100B2000014B9A61704700000010024029B1064A4B
:100B3000D2680243044BDA6004E0034AD26882437D
:100B4000014BDA60704700000010024070B50021D0
:100B500000220024002300253A4E766806F00C019E
:100B600021B1042905D008293ED105E0364E0660A2
:100B70003DE0354E06603AE0324E766806F470127B
:100B8000304E766806F48034022606EB9242022A42
:100B900000D112220F2A01D10D220125102A00D1E5
:100BA0000F22112A00D1102264B9284E366806F0AF
:100BB00010061EB1244E564306600FE0244E5643E5
:100BC00006600BE01F4E766806F400361EB1204E1C
:100BD0005643066002E01C4E56430660012D02D1CA
:100BE00006687608066002E0174E066000BF00BF88
:100BF000144E766806F0F0010909164E735C06681B
:100C0000DE4046600F4E766806F4E061090A114E38
:100C1000735C4668DE4086600A4E766806F4605172
:100C2000C90A0C4E735C4668DE40C660054E7668A5
:100C300006F44041890B084E735CC668B6FBF3F6B8
:100C4000066170BD0010024000127A0000380240B8
:100C500000093D000C0000201C00002010B51021F0
:100C60001B48FFF728FD20211948FFF722FD4FF40C
:100C700080611748FFF71DFD4FF400611448FFF72E
:100C80001AFD4FF480511348FFF713FD042111485A
:100C9000FFF711FD4FF400510E48FFF70CFD202126
:100CA0000C48FFF706FD4FF416710B4800F050FD9D
:100CB0004FF41671084800F04DFD4FF416710648C8
:100CC00000F04AFD4FF41671034800F047FD10BDD7
:100CD00000080140000C01400004004010B5102144
:100CE0001A48FFF7E8FC20211848FFF7E2FC4FF410
:100CF00080611648FFF7DFFC4FF400611348FFF7EF
:100D0000D8FC4FF480511248FFF7D5FC042110485D
:100D1000FFF7CFFC4FF400510D48FFF7CCFC20212A
:100D20000B48FFF7C6FC4FF416710A4800F010FD9F
:100D30000021084800F00EFD0021064800F00CFDDF
:100D40004FF41671034800F009FD10BD0008014082
:100D5000000C01400004004000BFFEE710B500F0A9
:100D600001F810BD0CB50020019000902B480068E0
:100D700040F480302949086000BF2848006800F42A
:100D8000003000900198401C0190009818B901981B
:100D9000B0F5805FF1D12148006800F4003010B157
:100DA0000120009001E0002000900098012833D13C
:100DB0001A48406819494860084640684860084633
:100DC000406840F4806048600846406820F47C1029
:100DD00048600846406840F4E810486008460068EB
:100DE00040F08070086000BF0C48006800F00070A0
:100DF0000028F9D00948406820F0030007494860FE
:100E00000846406840F00200486000BF0348406860
:100E100000F00C000828F9D10CBD000000100240C1
:100E200000BFFEE710B51648006840F00100144905
:100E30000860084640681349084011494860084660
:100E40000068114908400E4908600846006820F40F
:100E5000802008600846406820F4FE00486008468C
:100E6000006820F0A05008604FF47F0088600020E8
:100E7000C862FFF773FF4FF000600449086010BDBF
:100E8000001002400000FFF8FFFFF6FE08ED00E052
:100E9000F0B50C46154600220021068C4FF6FE7771
:100EA0003E400684028B018C4FF60C7632407E1C4D
:100EB00006EA03162E433243134EB04214D0B0F16B
:100EC000804F11D0114EB0420ED0114EB0420BD017
:100ED000104EB04208D0104EB04205D00F4EB04276
:100EE00002D00F4EB04206D14FF6FD76314044F0AD
:100EF0000106314305E04FF6F576314044F0010636
:100F0000314302830184F0BD002C01400004004005
:100F100000080040000C004000340140004C01403B
:100F200000500140F0B50C46154600220021002675
:100F3000078C4FF6EF7C07EA0C070784028B018CC5
:100F40004FF6FF7707EA041640F6FF473A404FF6A0
:100F5000FF7707EA03373A434FF6FF7707EA05279B
:100F60003A43144FB84214D0B0F1804F11D0124F11
:100F7000B8420ED0114FB8420BD0114FB84208D032
:100F8000104FB84205D0104FB84202D00F4FB842B0
:100F900006D14FF6DF77394046F01007394305E0B8
:100FA0004FF65F77394044F01007394302830184DC
:100FB000F0BD0000002C014000040040000800408B
:100FC000000C004000340140004C01400050014042
:100FD000F0B50C461546002200210026078C4FF67E
:100FE000FF6C07EA0C070784828B018C4FF6FF77B2
:100FF00007EA04264FF60C773A404FF6FF7707EAE8
:1010000003172F433A43144FB84214D0B0F1804F26
:1010100011D0124FB8420ED0114FB8420BD0114F21
:10102000B84208D0104FB84205D0104FB84202D095
:101030000F4FB84206D14FF6FF57394046F480773C
:10104000394305E04FF2FF57394044F48077394384
:1010500082830184F0BD0000002C014000040040A8
:1010600000080040000C004000340140004C0140EA
:1010700000500140F0B50C46154600220021002624
:10108000078C4EF6FF7C07EA0C070784828B018CE5
:101090004FF6FF7707EA043640F6FF473A404FF62F
:1010A000FF7707EA05273A434FF6FF7707EA03374A
:1010B0003A43144FB84214D0B0F1804F11D0124FC0
:1010C000B8420ED0114FB8420BD0114FB84208D0E1
:1010D000104FB84205D0104FB84202D00F4FB8425F
:1010E00006D14DF6FF77394046F48057394305E085
:1010F00047F6FF57394044F48057394382830184CF
:10110000F0BD0000002C0140000400400008004039
:10111000000C004000340140004C014000500140F0
:1011200070B588B006460C4615460020079003901F
:1011300004900590069000900190029001210C20EF
:10114000FFF7E4FC01210220FFF7C0FCC020ADF84E
:101150001C0018208DF81F0003208DF81E0007A921
:101160002A48FFF71BFA0320ADF81C0018208DF861
:101170001F0003208DF81E0007A92548FFF70EFA6F
:10118000ADF80460ADF800400020ADF80600ADF801
:10119000020069461F4800F013FB6020ADF80C0008
:1011A0000120ADF80E00ADF812500020ADF814008B
:1011B00003A9184800F07CF903A9164800F0CAF901
:1011C00003A9144800F022FA03A9124800F078FAA3
:1011D0000121104800F052F800210E4800F0B0F94B
:1011E00001210C4800F02CF801210A4800F03AF8DF
:1011F00008483430008807483830008805483C30BB
:10120000008804484030008808B070BD00080140E4
:10121000000C01400004004010B50121064800F018
:10122000ECF840B105480068401C04490860012101
:10123000014800F014F810BD00100040000000202C
:1012400021B1028842F08002028004E002884FF659
:101250007F731A4002807047CA4302827047CA43B4
:101260000282704721B1028842F00102028004E04C
:1012700002884FF6FE731A400280704731B1B0F811
:10128000442042F40042A0F8442005E0B0F8442095
:10129000C2F30E02A0F844207047000010B50446C7
:1012A0003C48844208D10121C014FFF73FFC0021D3
:1012B000E014FFF73BFC6CE03748844208D1012181
:1012C0004014FFF733FC00216014FFF72FFC60E0AF
:1012D0003248844209D10121C804FFF727FC0021CC
:1012E0004FF40020FFF722FC53E02D48844209D13F
:1012F00001210805FFF71AFC00214FF48010FFF7C9
:1013000015FC46E0B4F1804F08D101210846FFF7F3
:10131000EDFB00210120FFF7E9FB3AE02148844280
:1013200008D101210220FFF7E1FB00210220FFF795
:10133000DDFB2EE01C48844208D101210420FFF788
:10134000D5FB00210420FFF7D1FB22E0174884429F
:1013500008D101210820FFF7C9FB00210820FFF771
:10136000C5FB16E01248844208D101211020FFF786
:10137000BDFB00211020FFF7B9FB0AE00D488442B5
:1013800007D101212020FFF7B1FB00212020FFF72A
:10139000ADFB10BD002C014000340140004C014069
:1013A000005001400004004000080040000C0040D4
:1013B0000010004000140040F0B50C4615461E46D3
:1013C0000021002200230189028B038C4FF6F8775D
:1013D000394021434FF6FC473A4040F201173A4367
:1013E0004FF6DD773B404FF6FF7707EA06172F43AE
:1013F0003B43018102830384F0BD30B502460020E7
:1014000000230024158A05EA0103958905EA0104F1
:1014100013B10CB1012000E0002030BD70B50546CD
:101420000C46208850B92389A28861882846FFF796
:101430002FFDE188284600F096F925E02088042851
:101440000AD12389A28861882846FFF76BFDE188CD
:10145000284600F091F917E0208808280AD123894E
:10146000A28861882846FFF7B3FDE188284600F08E
:1014700090F909E02389A28861882846FFF7FAFDE0
:10148000E188284600F08EF970BD0021018041807E
:10149000012181800021C180018170471AB18389B7
:1014A0000B43838102E083898B4383817047000073
:1014B00070B5002400220023058C4FF6FE763540DF
:1014C0000584028C8388048B4FF68F752C40B51EE3
:1014D0002C400D882C43751E2A400D892A434D88C7
:1014E0002A43134DA84208D0124DA84205D0124DF0
:1014F000A84202D0114DA84213D14FF6F7752A40E9
:101500004D892A434FF6FB752A408D882A434FF6B2
:10151000FF652B404FF6FF552B408D892B43CD891E
:101520002B4383800483CD888586028470BD0000B0
:10153000002C014000340140004C014000500140AB
:101540000A460021018B4FF6F773194011430183BE
:101550007047000070B5002400220023058C4FF670
:10156000EF7635400584028C8388048B48F6FF753E
:101570002C404FF6FF452C400D884FF6FF7606EACB
:1015800005252C434FF6DF752A400D8906EA05151F
:101590002A434D8806EA05152A43184DA84208D06B
:1015A000174DA84205D0174DA84202D0164DA842AB
:1015B0001DD14FF67F752A404D894FF6FF7606EA1A
:1015C00005152A434FF6BF752A408D8806EA051592
:1015D0002A434FF6FF352B404FF2FF752B408D8984
:1015E00006EA85052B43CD8906EA85052B438380D2
:1015F0000483CD880587028470BD0000002C014063
:1016000000340140004C01400050014070B50024FE
:1016100000220023058C4FF6FF6635400584028CBE
:101620008388848B4FF68F752C404FF6FC752C40C9
:101630000D882C434FF6FF552A400D894FF6FF7653
:1016400006EA05252A434D8806EA05252A43184D52
:10165000A84208D0174DA84205D0174DA84202D085
:10166000164DA8421DD14FF2FF752A404D894FF605
:10167000FF7606EA05252A434FF6FF352A408D8876
:1016800006EA05252A434EF6FF752B404DF6FF75F9
:101690002B408D8906EA05152B43CD8906EA0515F1
:1016A0002B4383808483CD888587028470BD0000AE
:1016B000002C014000340140004C0140005001402A
:1016C00070B5002200230024058C4EF6FF763540CD
:1016D0000584038C8488828B48F6FF752A404FF678
:1016E000FF452A400D884FF6FF7606EA05252A4376
:1016F0004DF6FF752B400D8906EA05352B434D88C5
:1017000006EA05352B430E4DA84208D00D4DA842E0
:1017100005D00D4DA84202D00C4DA84208D14BF681
:10172000FF752C408D894FF6FF7606EA85152C4310
:1017300084808283CD88A0F84050038470BD00006F
:10174000002C014000340140004C01400050014099
:10175000818670470187704781877047A0F84010E5
:10176000704781847047028B4FF6F3731A400283EF
:10177000028B0A4302837047028B4FF2FF331A40F9
:101780000283028B4FF6FF7303EA01231A4302839D
:101790007047828B4FF6F3731A408283828B0A4321
:1017A00082837047828B4FF2FF331A408283828B91
:1017B0004FF6FF7303EA01231A4382837047000048
:1017C000002202881E4B984214D0B0F1804F11D0F5
:1017D0001C4B98420ED01C4B98420BD01B4B98428E
:1017E00008D01B4B984205D01A4B984202D01A4B96
:1017F000984204D14FF68F731A404B881A43174B07
:10180000984207D0164B984204D04FF6FF431A4037
:10181000CB881A4302808B8883850B880385084B0D
:10182000984208D00A4B984205D00A4B984202D001
:10183000094B984201D10B7A0386012383827047BA
:10184000002C01400004004000080040000C004053
:1018500000340140004C01400050014000100040A5
:10186000001400404FF6FF71818000210180C1808B
:1018700041800172704721B1828942F40052828115
:1018800004E082894DF6FF731A4082817047024658
:10189000002013880B400BB1012000E000207047AE
:1018A000F0B5034600240026002500201846C1F3A9
:1018B000421401F01F06012707FA06F5012C01D199
:1018C0000C3004E0022C01D1103000E014301AB1C9
:1018D00007682F43076002E00768AF430760F0BD69
:1018E0002DE9F04786B005460E460024A24600BF0B
:1018F000A14600272F462C8A4CF6FF700440F08842
:1019000004432C82AC894EF6F3100440B088318930
:101910000843718908430443AC81AC8A4FF6FF4009
:101920000440B0890443AC8201A8FFF70FF91F48B7
:10193000874202D1DDF810A001E0DDF80CA0A889F3
:1019400000F4004040B10AEBCA0000EB0A10316815
:101950004900B0FBF1F807E00AEBCA0000EB0A10FF
:1019600031688900B0FBF1F86420B8FBF0F00401A5
:101970002009642101FB1089A88900F4004040B1CE
:10198000322000EBC900B0FBF1F000F00700044387
:1019900008E0322000EB09106421B0FBF1F000F008
:1019A0000F0004432C8106B0BDE8F08700380140E9
:1019B00001468888C0F308007047C1F3080282809E
:1019C0007047000000B585B00020049000900190A1
:1019D0000290039001218804FFF778F80121082084
:1019E000FFF794F84FF48060ADF8100003208DF8F5
:1019F000120018208DF8130004A91848FEF7CEFD38
:101A00004FF40060ADF8100003208DF812000420A0
:101A10008DF8130004A91148FEF7C0FD4FF41650CD
:101A200000900020ADF80400ADF80600ADF8080005
:101A3000ADF80C000C20ADF80A0069460848FFF725
:101A40004FFF012240F225510548FFF729FF0121F0
:101A50000348FFF710FF05B000BD0000000C014077
:101A60000048004000BFFEE70FB4054B10B503A9C6
:101A7000044A029800F017F810BC5DF814FB00004F
:101A80009D1B00080400002002E008C8121F08C1C6
:101A9000002AFAD170477047002001E001C1121FEF
:101AA000002AFBD170472DE9F84F994692468846A7
:101AB0000546002706E025280AD051464A469047A9
:101AC0006D1C7F1C28780028F5D13846BDE8F88FBA
:101AD000002315F8011F18462E2915D115F8011FEE
:101AE00004232A290DD06FF02F022978A1F13004A8
:101AF000092C09D800EB800002EB400008446D1C63
:101B0000F3E758F8040B6D1C2A78002ADDD0632A0D
:101B100007D0732A0FD0104651464A4690477F1C83
:101B20002AE018F8042B8DF8002000218DF8011010
:101B30006E46012103E058F8046B4FF0FF315A075D
:101B40004FF0000401D409E0641C84420BDA8C429B
:101B5000FADB325D002AF7D105E0641C8C42FCDB25
:101B6000305D0028F9D1274404E016F8010B5146F6
:101B70004A469047641EF8D26D1CA3E710B5044690
:101B800000BF20210448FFF782FE0028F9D0024858
:101B9000FFF70EFF10BD00000048004070B504467E
:101BA0000D4600BF40210548FFF771FE0028F9D01F
:101BB000E1B20248FFF701FF204670BD0048004037
:101BC000FFF7DCBFFEF728FBFEF7A6FBFFF7FAFEE8
:101BD000FEF774FD0022472140F2E730FFF7A0FA3C
:101BE0003FE02048FFF7ECFFC4B221461EA0FFF7FC
:101BF0003BFF4B2C2ED00CDC452C22D004DC412C9E
:101C000019D0442C2CD119E0482C26D04A2C27D1AD
:101C10001DE0512C18D0532C07D0572C02D0582C33
:101C20001ED105E0FEF738FE1AE0FEF7F5FD17E0DD
:101C3000FEF7F2FE14E0FEF7AFFE11E0FEF76CFED9
:101C40000EE0FFF70BF80BE0FEF766FD08E0FEF78D
:101C5000A3FD05E0FFF742F802E0FEF71BFB00BF23
:101C600000BFBEE72000002025630A008C1C00088E
:101C70000000002024000000881A0008B01C0008A2
:101C80002400002004040000981A0008000000004E
:101C9000000000000000000000000000010203043A
:101CA00001020304060708090204060800000000F8
:04000005080001A14D
:00000001FF
